{
  "contractName": "SPARTA",
  "abi": [
    {
      "inputs": [
        {
          "internalType": "bytes32",
          "name": "_keyName",
          "type": "bytes32"
        },
        {
          "internalType": "bytes32",
          "name": "_hash1",
          "type": "bytes32"
        },
        {
          "internalType": "bytes32",
          "name": "_hash2",
          "type": "bytes32"
        }
      ],
      "name": "setIPNSKey",
      "outputs": [],
      "stateMutability": "nonpayable",
      "type": "function"
    },
    {
      "inputs": [
        {
          "internalType": "bytes32",
          "name": "_keyName",
          "type": "bytes32"
        }
      ],
      "name": "getIPNSKey",
      "outputs": [
        {
          "internalType": "address",
          "name": "",
          "type": "address"
        },
        {
          "internalType": "bytes",
          "name": "",
          "type": "bytes"
        }
      ],
      "stateMutability": "view",
      "type": "function",
      "constant": true
    }
  ],
  "bytecode": "0x608060405234801561001057600080fd5b50610415806100206000396000f3fe608060405234801561001057600080fd5b50600436106100365760003560e01c8063cf13903a1461003b578063e95a84ac1461006c575b600080fd5b6100556004803603810190610050919061022f565b610088565b60405161006392919061032d565b60405180910390f35b6100866004803603810190610081919061035d565b610167565b005b60006060600080600085815260200190815260200160002060000160009054906101000a900473ffffffffffffffffffffffffffffffffffffffff169050600080600086815260200190815260200160002060010154905060008060008781526020019081526020016000206002015490506000604067ffffffffffffffff811115610117576101166103b0565b5b6040519080825280601f01601f1916602001820160405280156101495781602001600182028036833780820191505090505b50905082602082015281604082015283819550955050505050915091565b3360008085815260200190815260200160002060000160006101000a81548173ffffffffffffffffffffffffffffffffffffffff021916908373ffffffffffffffffffffffffffffffffffffffff16021790555081600080858152602001908152602001600020600101819055508060008085815260200190815260200160002060020181905550505050565b600080fd5b6000819050919050565b61020c816101f9565b811461021757600080fd5b50565b60008135905061022981610203565b92915050565b600060208284031215610245576102446101f4565b5b60006102538482850161021a565b91505092915050565b600073ffffffffffffffffffffffffffffffffffffffff82169050919050565b60006102878261025c565b9050919050565b6102978161027c565b82525050565b600081519050919050565b600082825260208201905092915050565b60005b838110156102d75780820151818401526020810190506102bc565b60008484015250505050565b6000601f19601f8301169050919050565b60006102ff8261029d565b61030981856102a8565b93506103198185602086016102b9565b610322816102e3565b840191505092915050565b6000604082019050610342600083018561028e565b818103602083015261035481846102f4565b90509392505050565b600080600060608486031215610376576103756101f4565b5b60006103848682870161021a565b93505060206103958682870161021a565b92505060406103a68682870161021a565b9150509250925092565b7f4e487b7100000000000000000000000000000000000000000000000000000000600052604160045260246000fdfea2646970667358221220392cfaaa448c8f26ef3b421504c8a5eeeb3ae9d3c553ebe8dd585d1388c2c1c364736f6c63430008110033",
  "immutableReferences": {},
  "source": "// SPDX-License-Identifier: MIT\npragma solidity >= 0.5.0 < 0.9.0;\n\ncontract SPARTA {\n\n  struct IPNSKey {\n    address sender;\n    bytes32 hashPart1;\n    bytes32 hashPart2;\n  }\n  mapping (bytes32 => IPNSKey) allIPNSKeys;\n\n  function setIPNSKey(bytes32 _keyName, bytes32 _hash1, bytes32 _hash2) public {\n    allIPNSKeys[_keyName].sender = msg.sender;\n    allIPNSKeys[_keyName].hashPart1 = _hash1;\n    allIPNSKeys[_keyName].hashPart2 = _hash2;\n  }\n\n  function getIPNSKey(bytes32 _keyName) public view returns (address, bytes memory) {\n    address sender = allIPNSKeys[_keyName].sender;\n    bytes32 p1 = allIPNSKeys[_keyName].hashPart1;\n    bytes32 p2 = allIPNSKeys[_keyName].hashPart2;\n    bytes memory joined = new bytes(64);\n    assembly {\n      mstore(add(joined, 32), p1)\n      mstore(add(joined, 64), p2)\n    }\n    return (sender, joined);\n  }\n}",
  "sourcePath": "/home/edoardo/Docker/SPARTA/src/blockchain/contracts/SPARTA.sol",
  "compiler": {
    "name": "solc",
    "version": "0.8.17+commit.8df45f5f.Emscripten.clang"
  },
  "schemaVersion": "3.4.16",
  "updatedAt": "2026-03-05T16:00:24.970Z",
  "networkType": "ethereum",
  "devdoc": {
    "kind": "dev",
    "methods": {},
    "version": 1
  },
  "userdoc": {
    "kind": "user",
    "methods": {},
    "version": 1
  }
}